:100000000C94FC000C9419010C9419010C94190126
:100010000C9419010C9419010C9419010C941901F8
:100020000C9419010C9419010C9419010C941901E8
:100030000C9419010C9419010C9419010C941901D8
:100040000C9419010C9419010C943B0C0C94690C40
:100050000C9419010C9419010C9419010C941901B8
:100060000C9419010C9419014E414E494E495459B2
:10007000494E46CDCCCC3D0AD7233C17B7D1387773
:10008000CC2B329595E6241FB14F0A000020410089
:1000900000C84200401C4620BCBE4CCA1B0E5AAED3
:1000A000C59D7400407A10F35A00A0724E180900E2
:1000B00010A5D4E80000E87648170000E40B5402CD
:1000C0000000CA9A3B000000E1F505000080969808
:1000D00000000040420F000000A086010000001058
:1000E0002700000000E8030000000064000000009A
:1000F000000A00000000000100000000002C76D87B
:1001000088DC674F0823DFC1DFAE59E1B1B796E560
:10011000E3E453C63AE651997696E8E6C28426EBC4
:10012000898C9B62ED407C6FFCEFBC9C9F40F2BAD7
:10013000A56FA5F490055A2AF75C936B6CF9676D6F
:10014000C11BFCE0E40D47FEF520E6B500D0ED90C4
:100150002E0300943577050080841E080000204E91
:100160000A000000C80C333333330F986E1283112A
:1001700041EF8D2114893BE65516CFFEE6DB18D101
:10018000844B381BF77C1D901DA4BBE424203284D3
:10019000725E228100C9F124ECA1E53D2700000038
:1001A0000800020100000304070000000000000036
:1001B0000001020408102040800102040810200100
:1001C00002040810200404040404040404020202CB
:1001D00002020203030303030300000000230026BE
:1001E00000290000000000250028002B000000006E
:1001F00000240027002A000011241FBECFEFD8E002
:10020000DEBFCDBF11E0A0E0B1E0E4EFFBE202C051
:1002100005900D92A830B107D9F721E0A8E0B1E030
:1002200001C01D92AA35B207E1F70E94030D0C949C
:10023000F8150C9400000F931F93CF93DF938C015C
:10024000C0E0D0E088E00E946D02892B69F4C430E0
:10025000D10511F480E027C021968FE99FE0019736
:10026000F1F700C00000EECF2497A1F38FE99FE0E3
:100270000197F1F700C00000C1E0D0E088E00E94E3
:100280006D02019741F42196EFE9FFE03197F1F714
:1002900000C00000F3CF249714F081E301C080E395
:1002A000F801808381E0DF91CF911F910F91089534
:1002B000833081F028F4813099F08230A1F00895E4
:1002C0008730A9F08830B9F08430D1F48091800073
:1002D0008F7D03C0809180008F7780938000089588
:1002E00084B58F7702C084B58F7D84BD08958091D9
:1002F000B0008F7703C08091B0008F7D8093B000F5
:1003000008959FB7F89480910C01882319F08150CB
:1003100080930C0180910C01811105C08CB58F7BFD
:100320008CBD10920B019FBF08959FB7F89488234E
:1003300049F0813011F482E006C082E080930B0125
:1003400080E001C081E020910A01822B80930A01A4
:1003500080910B01811103C081E080930B019FBF4D
:10036000089590910B019230B1F02FB7F894882343
:1003700021F0813021F482E003C081E001C080E0FF
:10038000809590910A01892380930A01811102C00E
:1003900010920B012FBF0895CF93DF9390E0FC01E3
:1003A000EF54FE4F2491FC01EB53FE4F84918823C0
:1003B00061F190E0880F991FFC01E351FE4FC59158
:1003C000D491FC01ED51FE4FA591B491611109C08A
:1003D0009FB7F8948881209582238883EC912E23FF
:1003E0000BC0623061F49FB7F8948881322F30954A
:1003F00083238883EC912E2B2C939FBF06C08FB74D
:10040000F894E8812E2B28838FBFDF91CF91089538
:100410001F93CF93DF93282F30E0F901E356FE4F6F
:100420008491F901EF54FE4FD491F901EB53FE4F43
:10043000C491CC23C1F0162F81110E945801EC2FDA
:10044000F0E0EE0FFF1FED51FE4FA591B4919FB765
:10045000F894111104C08C91D095D82302C0EC916E
:10046000DE2BDC939FBFDF91CF911F910895CF9337
:10047000CFB7F89480910C01811127C0EFECF1E027
:100480008491EBEBF1E09491E82FF0E0EE0FFF1F89
:10049000E351FE4FA591B491EC91E92321F461E081
:1004A0008AE00E94080261E08AE00E94CC018CB5DB
:1004B00080618CBD8CB580648CBD61E08DE00E9454
:1004C000CC0161E08BE00E94CC0180910C018F5F38
:1004D00080930C01CFBFCF910895CF93DF93282F46
:1004E00030E0F901E356FE4F8491F901EF54FE4FDD
:1004F000D491F901EB53FE4FC491CC2391F08111BB
:100500000E945801EC2FF0E0EE0FFF1FE752FE4F64
:10051000A591B491EC91ED2381E090E021F480E08D
:1005200002C080E090E0DF91CF910895FC018081CE
:1005300091810C94260ECF93DF93EC0188819981F1
:10054000009711F00E94260E198218821D821C82CB
:100550001B821A82DF91CF9108950F931F93CF933F
:10056000DF93EC018B016F5F7F4F888199810E943F
:10057000AF0E009731F0998388831B830A8381E053
:1005800001C080E0DF91CF911F910F910895CF932B
:10059000DF93EC0188819981892B29F08A819B81E5
:1005A0008617970760F4CE010E94AD02882341F0C0
:1005B0008C819D81892B19F4E881F981108281E079
:1005C000DF91CF910895EF92FF920F931F93CF93F6
:1005D000DF93EC017B018A01BA010E94C7028111FD
:1005E00004C0CE010E949B0207C01D830C83B7018B
:1005F000888199810E94F80FCE01DF91CF911F91E0
:100600000F91FF90EF900895FC01118210821382E8
:100610001282158214826115710551F0FB0101905F
:100620000020E9F73197AF01461B570B0C94E3020A
:100630000895EF92FF920F931F93CF93DF93EC01F6
:100640007B018A01BA010E94C702811104C0CE0158
:100650000E949B0207C01D830C83B701888199818A
:100660000E94B90FCE01DF91CF911F910F91FF90A2
:10067000EF9008950F931F93CF93DF938C01EB01BD
:10068000FC01808191810097D1F0688179816115A9
:10069000710599F02DE63DE0232B79F042815381DD
:1006A0002C813D814217530740F00E94F80F8C8146
:1006B0009D81F8019583848313C00E94260E888152
:1006C0009981F801918380838A819B8193838283BE
:1006D0008C819D8195838483198218821B821A8262
:1006E0001D821C82DF91CF911F910F910895FC0113
:1006F0001182108213821282158214820C943A03A2
:10070000FC011182108213821282158214820C94D1
:100710003A03CF93DF93EC01FB018617970761F053
:10072000608171816115710529F0448155810E94B4
:10073000E30202C00E949B02CE01DF91CF91089597
:10074000FC011182108213821282158214820C9491
:100750008903CF93DF93EC018617970711F00E946E
:100760003A03CE01DF91CF910895CF93DF93EC014F
:100770006817790711F00E943A03CE01DF91CF91FB
:100780000895CF93DF93EC016115710559F0FB01DA
:1007900001900020E9F73197AF01461B570B0E94EB
:1007A000E30202C00E949B02CE01DF91CF91089527
:1007B000CF93DF9300D0CDB7DEB7FC01118210825A
:1007C000138212821582148269831A82BE016F5FBE
:1007D0007F4F0E94C1030F900F90DF91CF9108953A
:1007E0000F931F93CF93DF93CDB7DEB729970FB643
:1007F000F894DEBF0FBECDBF8C01862FF8011182A9
:100800001082138212821582148250E0BE016F5F43
:100810007F4F90E00E94B310BE016F5F7F4FC80111
:100820000E94C10329960FB6F894DEBF0FBECDBF5C
:10083000DF91CF911F910F9108950F931F93CF9345
:10084000DF93CDB7DEB762970FB6F894DEBF0FBE69
:10085000CDBF8C01CB01F80111821082138212826C
:100860001582148250E0BE016F5F7F4F0E944110DD
:10087000BE016F5F7F4FC8010E94C10362960FB631
:10088000F894DEBF0FBECDBFDF91CF911F910F91C6
:1008900008950F931F93CF93DF93CDB7DEB7619782
:1008A0000FB6F894DEBF0FBECDBF8C01CB01F801AF
:1008B00011821082138212821582148250E0BE01CE
:1008C0006F5F7F4F0E94B310BE016F5F7F4FC80103
:1008D0000E94C10361960FB6F894DEBF0FBECDBF74
:1008E000DF91CF911F910F9108950F931F93CF9395
:1008F000DF93CDB7DEB7A2970FB6F894DEBF0FBE79
:10090000CDBF8C01CB01BA01F80111821082138294
:1009100012821582148230E0AE014F5F5F4F0E9459
:100920005710BE016F5F7F4FC8010E94C103A2969E
:100930000FB6F894DEBF0FBECDBFDF91CF911F91F0
:100940000F9108950F931F93CF93DF93CDB7DEB729
:10095000A1970FB6F894DEBF0FBECDBF8C01CB01BF
:10096000BA01F80111821082138212821582148258
:1009700030E0AE014F5F5F4F0E948610BE016F5F97
:100980007F4FC8010E94C103A1960FB6F894DEBF45
:100990000FBECDBFDF91CF911F910F910895EF92C0
:1009A000FF920F931F93CF93DF93CDB7DEB7A1973D
:1009B0000FB6F894DEBF0FBECDBF7C01CB01BA01EC
:1009C000F70111821082138212821582148242E092
:1009D000420F8E010F5F1F4F0E946E0DBC01C701B9
:1009E0000E94C103A1960FB6F894DEBF0FBECDBF23
:1009F000DF91CF911F910F91FF90EF900895EF92AB
:100A0000FF920F931F93CF93DF93CDB7DEB7A197DC
:100A10000FB6F894DEBF0FBECDBF7C01CB01BA018B
:100A2000F70111821082138212821582148242E031
:100A3000420F8E010F5F1F4F0E946E0DBC01C70158
:100A40000E94C103A1960FB6F894DEBF0FBECDBFC2
:100A5000DF91CF911F910F91FF90EF9008950F9329
:100A60001F93CF93DF93EC018B016115710549F062
:100A7000CB010E94C00FAC01B801CE010E94190346
:100A800002C00E949B02CE01DF91CF911F910F9176
:100A90000895FC0111821082138212821582148241
:100AA0000C942F05EF92FF920F931F93CF93DF9338
:100AB0006115710511F480E01CC041155105C1F0AC
:100AC0007B01EC018C819D818A01080F191FB801FF
:100AD000CE010E94C702882371F3288139818C815D
:100AE0009D81B701820F931F0E94F80F1D830C8315
:100AF00081E0DF91CF911F910F91FF90EF900895CA
:100B0000FB0144815581608171810C94520561150E
:100B1000710551F0FB0101900020E9F73197AF0119
:100B2000461B570B0C94520580E00895CF93DF933A
:100B300000D0CDB7DEB769831A8241E050E0BE0134
:100B40006F5F7F4F0E9452050F900F90DF91CF9102
:100B50000895EF92FF920F931F93CF93DF9300D0EE
:100B600000D0CDB7DEB77C01862F4AE08E010F5F43
:100B70001F4FB80190E00E944C10F8010190002036
:100B8000E9F73197AF01401B510BB801C7010E9433
:100B900052050F900F900F900F90DF91CF911F9102
:100BA0000F91FF90EF900895EF92FF920F931F9394
:100BB000CF93DF93CDB7DEB728970FB6F894DEBF9B
:100BC0000FBECDBF7C01CB014AE08E010F5F1F4FEE
:100BD000B8010E944C10F80101900020E9F731970C
:100BE000AF01401B510BB801C7010E945205289666
:100BF0000FB6F894DEBF0FBECDBFDF91CF911F912E
:100C00000F91FF90EF900895EF92FF920F931F9333
:100C1000CF93DF93CDB7DEB727970FB6F894DEBF3B
:100C20000FBECDBF7C01CB014AE08E010F5F1F4F8D
:100C3000B8010E94BE10F80101900020E9F7319739
:100C4000AF01401B510BB801C7010E945205279606
:100C50000FB6F894DEBF0FBECDBFDF91CF911F91CD
:100C60000F91FF90EF900895EF92FF920F931F93D3
:100C7000CF93DF93CDB7DEB72E970FB6F894DEBFD4
:100C80000FBECDBF7C01CB01BA012AE08E010F5F00
:100C90001F4FA8010E946210F80101900020E9F79F
:100CA0003197AF01401B510BB801C7010E9452059B
:100CB0002E960FB6F894DEBF0FBECDBFDF91CF9159
:100CC0001F910F91FF90EF900895EF92FF920F9375
:100CD0001F93CF93DF93CDB7DEB72D970FB6F89460
:100CE000DEBF0FBECDBF7C01CB01BA012AE08E0171
:100CF0000F5F1F4FA8010E949110F8010190002082
:100D0000E9F73197AF01401B510BB801C7010E94B1
:100D100052052D960FB6F894DEBF0FBECDBFDF9102
:100D2000CF911F910F91FF90EF900895EF92FF9256
:100D30000F931F93CF93DF93CDB7DEB764970FB6B2
:100D4000F894DEBF0FBECDBF7C01CB01BA018E018E
:100D50000F5F1F4F22E044E00E946E0DFC010190E6
:100D60000020E9F73197AF01481B590BBC01C701BF
:100D70000E94520564960FB6F894DEBF0FBECDBF39
:100D8000DF91CF911F910F91FF90EF900895EF9217
:100D9000FF920F931F93CF93DF93CDB7DEB7649786
:100DA0000FB6F894DEBF0FBECDBF7C01CB01BA01F8
:100DB0008E010F5F1F4F22E044E00E946E0DFC0188
:100DC00001900020E9F73197AF01481B590BBC0196
:100DD000C7010E94520564960FB6F894DEBF0FBE9D
:100DE000CDBFDF91CF911F910F91FF90EF900895AC
:100DF000EF92FF920F931F93CF93DF9361157105CD
:100E000011F480E01EC08B01EC01CB010E94C00FE9
:100E10000097B1F02C813D817C01E20EF31EB701F9
:100E2000CE010E94C702882361F3288139818C8119
:100E30009D81B801820F931F0E94B90FFD82EC8241
:100E400081E0DF91CF911F910F91FF90EF90089576
:100E5000CF93DF93EC01FB01448155816081718167
:100E60000E945205811103C0CE010E949B02CE0157
:100E7000DF91CF910895CF93DF93EC016115710558
:100E800061F0FB0101900020E9F73197AF01461BAB
:100E9000570B0E945205811103C0CE010E949B0294
:100EA000CE01DF91CF910895CF93DF93EC010E94A3
:100EB0009605811103C0CE010E949B02CE01DF91F5
:100EC000CF910895CF93DF93EC010E94A905811182
:100ED00003C0CE010E949B02CE01DF91CF91089505
:100EE000CF93DF93EC010E94D405811103C0CE01A2
:100EF0000E949B02CE01DF91CF910895CF93DF93A3
:100F0000EC010E940406811103C0CE010E949B02E5
:100F1000CE01DF91CF910895CF93DF93EC010E9432
:100F20003406811103C0CE010E949B02CE01DF91E5
:100F3000CF910895CF93DF93EC010E946506811154
:100F400003C0CE010E949B02CE01DF91CF91089594
:100F5000CF93DF93EC010E949606811103C0CE016E
:100F60000E949B02CE01DF91CF910895CF93DF9332
:100F7000EC010E94C706811103C0CE010E949B02B2
:100F8000CE01DF91CF910895CF93DF93EC010E94C2
:100F9000F806811103C0CE010E949B02CE01DF91B1
:100FA000CF910895CF93DF93DC01ED91FC91EB019C
:100FB000A881B981309711F01097C9F4109759F0B2
:100FC000EB012C813D81232B31F08C9190E09195A8
:100FD0008195910914C0309781F0DC0114968D91B0
:100FE0009C911597892B49F0808190E008C0BD0144
:100FF000CF01DF91CF910C94EF0F80E090E0DF9173
:10100000CF910895FC0144815581FB0124813581F4
:101010004217530729F40E94D20721E0892B09F0D7
:1010200020E0822F0895FC0124813581232B31F4A7
:1010300021E061157105A1F0FB0108C0FC01808170
:1010400091816115710531F421E0FC0180818823D3
:1010500039F005C00E94EF0F21E0892B09F020E054
:10106000822F08950E94D207892F881F8827881F02
:1010700008950E94D20721E0181619060CF020E00E
:10108000822F08950E94D20721E0181619060CF449
:1010900020E0822F08950E94D207892F8095881F13
:1010A0008827881F0895EF92FF920F931F93CF9385
:1010B000DF938617970731F1FC0124813581FB010D
:1010C0004481558124173507D9F4232BD9F0DC014D
:1010D0000D911C91C081D181F80181918F018823EC
:1010E00089F0082E000C990B0E94A90F7C018991B0
:1010F000082E000C990B0E94A90FE816F90661F35F
:1011000080E001C081E0DF91CF911F910F91FF90AE
:10111000EF900895DB011496ED91FC911597DC0199
:1011200014962D913C9115972E1B3F0B24173507D4
:10113000A0F02D913C912115310579F0DB016D91E5
:101140007C916115710549F0CA01AF01820F931FAF
:101150000E94FF0F21E0892B09F020E0822F0895E3
:10116000FC0144815581FB012481358142175307DD
:1011700020F040E050E00C948A0880E00895FC01E3
:1011800024813581FB014481558124173507A0F066
:10119000FC0180819181009779F0FB016081718170
:1011A0006115710549F0241B350B820F931F0E94B6
:1011B000EF0F21E0892B09F020E0822F0895FC0138
:1011C000248135816217730730F480819181FC019D
:1011D000E60FF71F40830895FC01248135816217D3
:1011E000730720F480819181009729F410920E01F9
:1011F0008EE091E00895860F971F0895FC012481E9
:1012000035816217730748F480819181009729F036
:10121000FC01E60FF71F8081089580E008950C948B
:10122000FE080F931F93CF93DF934115510519F1DA
:101230006115710501F1DC011496ED91FC91159792
:101240002E173F0718F0FB01108215C0E21BF30BAD
:10125000EA012197EC17FD0708F4EF018B01FC016F
:1012600060817181620F731FAE01C8010E940D1071
:10127000C00FD11F1882DF91CF911F910F91089558
:10128000CF93DF93FC01248135814217530778F413
:10129000C081D181062E000C770BCE01840F951FE3
:1012A0000E94E40F009719F08C1B9D0B02C08FEF7A
:1012B0009FEFDF91CF91089540E050E00C944009FA
:1012C000CF93DF93FC01248135814217530780F4CB
:1012D000FB01DC01CD91DC9160817181CE01840F35
:1012E000951F0E942710009719F08C1B9D0B02C0C0
:1012F0008FEF9FEFDF91CF91089540E050E00C9485
:101300006009DF92EF92FF920F931F93CF93DF93C9
:10131000DC0114962D913C9115974217530718F054
:101320008FEF9FEF1DC08C01EA012196DC01ED914A
:10133000FC911197EC0FFD1FD0801082ED90FC9076
:10134000062E000C770BC7010E941C10CE0DDF1D6E
:10135000D882009729F3F80120813181821B930BF9
:10136000DF91CF911F910F91FF90EF90DF90089543
:10137000FC0144815581415051090C948109AF927F
:10138000BF92CF92DF92EF92FF920F931F93CF9372
:10139000DF937B018A01FB01448155814115510591
:1013A00061F1FC01248135812115310531F12417CA
:1013B000350718F10217130718F0890101501109B8
:1013C000FC01A080B180C501DFEFCFEF6501C00E49
:1013D000D11EC816D906A0F0F701608171810E9464
:1013E0002710009769F09C012A193B09021713077F
:1013F00010F0D22FC32F0196ECCF8FEF9FEF02C0DA
:101400008D2F9C2FDF91CF911F910F91FF90EF9027
:10141000DF90CF90BF90AF900895FC01448155813B
:10142000FB0124813581421B530B0C94BF09BF92F1
:10143000CF92DF92EF92FF920F931F93CF93DF93A0
:101440007C016B018A01E9012417350720F4812F03
:101450008901C42FD82F66E071E0C7010E94040300
:10146000D60114968D919C91159708171907C8F409
:101470008C179D0708F4EC01D601ED91FC911197B2
:10148000EC0FFD1FB08010826D917C91600F711F79
:10149000C7010E94C103D601ED91FC91EC0FFD1F25
:1014A000B082C701DF91CF911F910F91FF90EF9014
:1014B000DF90CF90BF900895DC01ED91FC913097C3
:1014C00041F08081882329F0861301C04083319642
:1014D000F8CF08952F923F924F925F926F927F9232
:1014E0008F929F92AF92BF92CF92DF92EF92FF9234
:1014F0000F931F93CF93DF93FC01448055804114D9
:10150000510409F4CEC0FB018480958081149104BC
:1015100009F4C7C07A016B018C01FA0164807580FF
:1015200068187908FC01C081D18161147104B9F493
:10153000F60160817181CE010E942710EC010097B5
:1015400009F4AFC0F70160817181448155810E9427
:10155000C90FF70184819581C80FD91FE9CF77FEA4
:1015600044C05E01F60160817181C5010E942710AF
:101570002C01009721F14C018A189B08A401B501A8
:10158000CE010E94C90FC80DD91DF701608171817C
:1015900044815581CE010E94C90FF7018481958154
:1015A000C80FD91FF601A480B580A40CB51CF801A2
:1015B00084819581860D971D95838483D3CFB50152
:1015C000CE01DF91CF911F910F91FF90EF90DF90AF
:1015D000CF90BF90AF909F908F907F906F905F90D3
:1015E0004F903F902F900C94F80FFB01208031809A
:1015F0005201B101CE010E942710009731F0EC0199
:10160000C80DD91DA60CB71CF4CFA414B50409F459
:1016100048C0F801828193818A159B0530F4B50199
:10162000C8010E94AD028823E1F1F801448155818F
:101630004150510957FD35C0B601C8010E94BF098C
:10164000EC0197FD2EC0F60124813581280F391F4A
:10165000F80180819181820F931F44815581421B43
:10166000530BBC01860D971D0E94D20FF801848197
:101670009581860D971D9583848320813181F901A1
:10168000E80FF91F1082F80180819181F7016081D4
:101690007181448155818C0F9D1F0E94C90FAE013D
:1016A000C7CFDF91CF911F910F91FF90EF90DF9007
:1016B000CF90BF90AF909F908F907F906F905F90F2
:1016C0004F903F902F900895CF93DF93DC011496B5
:1016D000ED91FC9115976E177F0730F54115510577
:1016E00019F1DF01A61BB70B9A01A417B50708F47F
:1016F0009D01DB01EC0188819981E21BF30BFD83E5
:10170000EC83AF01461B570B260F371FBC01620F3E
:10171000731F8A0F9B1F0E940D10E881F9818C8135
:101720009D81E80FF91F1082DF91CF9108954FEF4F
:101730005FEF0C94640BCF93DF93FC01C081D181E8
:10174000209751F08881882339F0082E000C990BDE
:101750000E94A90F8993F6CFDF91CF910895CF937F
:10176000DF93FC01C081D181209751F088818823CB
:1017700039F0082E000C990B0E94B10F8993F6CF17
:10178000DF91CF910895AF92BF92CF92DF92EF9207
:10179000FF920F931F93CF93DF93DC01CD90DC90EA
:1017A0001197C114D10409F443C01496CD91DC9172
:1017B00015972097E9F18C0176015701BFEFAB1A1D
:1017C000BB0AF7018081082E000C990B0E94A00F24
:1017D000892B11F07501F1CF2197CC0DDD1D88818A
:1017E000082E000C990B0E94A00F892B29F0CE1512
:1017F000DF0510F02197F3CFAE014F5F5F4F4E1919
:101800005F09D80115965C934E931497CE14DF04AC
:1018100020F4B701C6010E94C90FD801ED91FC91D7
:10182000119714968D919C911597E80FF91F1082CE
:10183000DF91CF911F910F91FF90EF90DF90CF90AC
:10184000BF90AF900895FC0180819181009711F0C5
:101850000C94790F60E070E0CB010895FC01808169
:101860009181009711F00C94750F60E070E0CB014E
:1018700008950C942E0C1F920F920FB60F92112404
:101880002F938F939F93EF93FF938091C00090913C
:10189000C6008C71E0911101EF5FEF712091100192
:1018A000E21739F0E0931101F0E0EC5EFE4F908317
:1018B00001C082E090910F01892B80930F01FF916D
:1018C000EF919F918F912F910F900FBE0F901F90CE
:1018D00018951F920F920FB60F9211248F939F931A
:1018E000EF93FF939091130180911201981769F083
:1018F000E0911201EF5FEF71E0931201F0E0EC5C18
:10190000FE4F80818093C60005C08091C1008F7D0D
:101910008093C100FF91EF919F918F910F900FBE27
:101920000F901F90189510921301109212011092AF
:1019300011011092100197FF03C022E02093C00014
:1019400090789093C5008093C40088E98093C1008B
:1019500086E08093C200089590911101809110015A
:101960009817A9F0909110019F5F9F71E92FF0E007
:10197000EC5EFE4F208180910F0190931001109238
:101980000F0190E0982F8827820F911D089580E025
:1019900091E00895909113019F5F9F712091120132
:1019A0009217E1F3E92FF0E0EC5CFE4F8083909317
:1019B00013018091C10080628093C1000895CF938C
:1019C000DF93EC018991882319F00E94CA0CFACFA9
:1019D000DF91CF910895CF93DF93FC018491EF01C4
:1019E0002196882321F00E94CA0CFE01F7CFDF91D7
:1019F000CF910895209111019091100181E0291358
:101A000001C080E00895CF93DF93CDB7DEB7C55F07
:101A1000D1400FB6F894DEBF0FBECDBF87E690E091
:101A20000E94930C789460E088E00E94CC0161E011
:101A30008CE00E94CC0160E08CE00E94080200E093
:101A400010E0CE0101967C01CE018B509E4F0E948A
:101A50001B01882381F061E08CE00E940802F701FD
:101A6000E00FF11FCB50DE4F8881C55FD1408083EE
:101A70000F5F1F4FE9CF0115110531F361E08CE0D5
:101A80000E940802E2E0F0E0EC0FFD1FE00FF11F02
:101A90001082F70101900020E9F731978F010E19AC
:101AA0001F096701C6018E199F098017910734F439
:101AB000F60181916F010E94CA0CF4CF8AE00E9466
:101AC000CA0C80E00E94CA0C8FE99FE00197F1F7F1
:101AD00000C0000000E010E0B7CF0895EF920F9330
:101AE0001F93CF93DF93E80147FD02C034E001C0AC
:101AF00034E1042E000C550B57FF03C0519541955E
:101B00005109E32E022F242FAE010E94D810CE01DE
:101B1000DF91CF911F910F91EF9008950F931F9335
:101B2000CF93DF938230910510F482E090E0E09152
:101B30005601F091570120E030E0A0E0B0E030978E
:101B400019F1408151810281138148175907C8F06A
:101B50008417950769F4109731F012960C93129739
:101B600013961C9327C0009356011093570122C06F
:101B70002115310519F04217530718F49A01BD01D8
:101B8000EF01DF01F801DBCF21153105F9F0281B4A
:101B9000390B2430310580F48A819B8161157105F0
:101BA00021F0FB019383828304C0909357018093BB
:101BB0005601FE01329644C0FE01E20FF31F8193ED
:101BC000919322503109398328833AC020915401DE
:101BD00030915501232B41F42091020130910301F2
:101BE000309355012093540120910001309101015F
:101BF0002115310541F42DB73EB7409104015091B4
:101C00000501241B350BE0915401F0915501E217B9
:101C1000F307A0F42E1B3F0B2817390778F0AC010F
:101C20004E5F5F4F2417350748F04E0F5F1F5093EC
:101C30005501409354018193919302C0E0E0F0E09C
:101C4000CF01DF91CF911F910F910895CF93DF9333
:101C5000009709F481C0FC01329713821282A0918F
:101C60005601B0915701109781F420813181820F84
:101C7000931F20915401309155012817390751F5D0
:101C8000F0935501E093540167C0ED0120E030E08E
:101C9000CE17DF0740F44A815B819E014115510553
:101CA000F1F0EA01F5CFD383C28340815181840FE3
:101CB000951FC817D90759F488819981840F951FFA
:101CC0000296918380838A819B81938382832115ED
:101CD000310529F4F0935701E09356013DC0E90125
:101CE000FB83EA8349915991C40FD51FEC17FD0777
:101CF00061F480819181840F951F0296E901998397
:101D00008883828193819B838A83E0E0F0E012964E
:101D10008D919C911397009719F0FD01DC01F7CF8D
:101D20008D919C9111979D012E5F3F4F820F931FC4
:101D300020915401309155012817390769F43097E3
:101D400029F4109257011092560102C01382128298
:101D5000B0935501A0935401DF91CF910895A0E075
:101D6000B0E0E5EBFEE00C94B615EC01009721F431
:101D7000CB010E948E0DB4C0FC01E60FF71F9C0141
:101D800022503109E217F30708F4A8C0D9010D91D8
:101D90001C91119706171707B0F00530110508F4CC
:101DA0009BC0C80104978617970708F495C0025096
:101DB0001109061B170B019311936D937C93CF01AF
:101DC0000E94260E89C05B01A01AB10A4C01800E48
:101DD000911EA0915601B0915701612C712CE12CFC
:101DE000F12C109709F446C08D919C911197A8157C
:101DF000B905B1F56C0142E0C40ED11CCA14DB0474
:101E000078F14C018A189B08640142E0C40ED11C91
:101E10001296BC9012971396AC91B5E0CB16D104F4
:101E200040F0B282A38391828082D9016D937C932A
:101E300009C00E5F1F4F800F911FF90191838083AE
:101E4000EB2DFA2FE114F10431F0D7011396FC9336
:101E5000EE93129741C0F0935701E09356013CC0B6
:101E60006816790608F43C017D0112960D90BC912C
:101E7000A02DB7CF809154019091550188169906F5
:101E8000E1F466167706C8F4809100019091010193
:101E9000009741F48DB79EB7409104015091050120
:101EA000841B950BE817F907C8F4F0935501E093EC
:101EB0005401F901718360830FC0CB010E948E0D24
:101EC0007C01009759F0A801BE010E94C90FCE0104
:101ED0000E94260EC70104C0CE0102C080E090E03F
:101EE000CDB7DEB7EEE00C94D215662777270C94B9
:101EF00032121F93FC0199278827BC01E8941191A5
:101F00001032E9F3193010F01E30C8F31B3251F0D3
:101F10001D3249F4689406C00E947110610F711D52
:101F2000811D911D119110531A30B0F33EF490951C
:101F30008095709561957F4F8F4F9F4F1F910895AA
:101F400091110C945814803219F089508550C8F7BB
:101F500008959111089581548A5108F4805E855A3C
:101F600008959111089581568A5108F48052855838
:101F70000895FB01DC0105900D920020E1F7089522
:101F8000FC0105900020E9F7809590958E0F9F1F2A
:101F90000895FB01DC0102C001900D9241505040B8
:101FA000D8F708956817790768F4FB01DC01E40F9E
:101FB000F51FA40FB51F02C002900E924150504071
:101FC000D8F708950C94C90FFC018191861721F070
:101FD0008823D9F7992708953197CF010895FB01F8
:101FE000DC018D91019080190110D9F3990B0895AE
:101FF000FB01DC0101900D920020E1F70895FB0147
:10200000DC014150504030F08D910190801919F45D
:102010000020B9F7881B990B0895FB01DC014150A2
:10202000504048F001900D920020C9F701C01D9268
:1020300041505040E0F70895FC0181E090E00190AC
:10204000061609F4CF010020D1F701970895FB018E
:1020500051915523A9F0BF01DC014D914517411164
:10206000E1F759F4CD010190002049F04D91401560
:102070004111C9F3FB014111EFCF81E090E00197DD
:1020800008954532510520F4423010F00C944C1064
:10209000FB011082CB010895BB274A3031F499230C
:1020A00022F4BDE2909581959F4F0C94BF1025328C
:1020B000310520F4223010F00C946210FA011082E5
:1020C000CA010895BB272A3051F4992342F4BDE296
:1020D00090958095709561957F4F8F4F9F4F0C9491
:1020E0009210592F482F372F262F660F771F881FE2
:1020F000991F660F771F881F991F620F731F841F18
:10210000951F660F771F881F991F08952532310587
:1021100020F4223010F00C949110FA011082CA01C0
:102120000895BB27FA01A62F621771058105910555
:10213000330B30FB66F0AA27660F771F881F991FA5
:10214000AA1FA21710F0A21B63953850A9F7A05D33
:10215000AA3308F0A95DA19336F7B111B1931082AB
:10216000CA010C9473144532510520F4423010F02A
:102170000C94BE10FB011082CB010895BB27FB011C
:102180005527AA27880F991FAA1FA41710F0A41B70
:1021900083955051B9F7A05DAA3308F0A95DA193CA
:1021A000009779F7B111B1931192CB010C9473148C
:1021B000A9E0B0E0EEEDF0E10C94B8156A01122F41
:1021C000B02E2BE3201720F0FF24F394F00E02C072
:1021D0002CE3F22E0F2D27E0AE014F5F5F4F0E94E0
:1021E0008013BC014981842F8970813031F0E1FC7A
:1021F00006C0E0FE06C090E205C09DE203C09BE27F
:1022000001C090E05E2D507143FF3CC0911102C0AF
:1022100083E001C084E0811718F4212F281B01C03E
:1022200020E051110BC0F601822F30E2882319F013
:1022300031938150FBCFC20ED11C20E0992329F0AD
:10224000D6019C93F60131966F01C6010396E2FE1A
:102250000AC03EE4D6013C9341E411964C93119799
:1022600012963C9306C03EE6F601308341E6418378
:102270003283FC01322F40E2332309F442C0419300
:102280003150FACF42FF44C0911102C083E001C037
:1022900084E0811718F4212F281B01C020E0511180
:1022A0000BC0F601822F30E2882319F03193815060
:1022B000FBCFC20ED11C20E0992329F0D6019C93BC
:1022C000F60131966F01C6010396E2FE0BC039E4B8
:1022D000D6013C933EE411963C93119736E4129656
:1022E0003C9307C039E6F60130833EE6318336E69B
:1022F0003283FC01322F40E2332319F041933150F5
:10230000FBCFFC01E20FF11D10828EEF9FEFA6C004
:1023100021E030E0911102C020E030E016161706EF
:102320001CF4FB01319602C0E1E0F0E02E0F3F1FEC
:10233000BB2021F0EB2DF0E0319602C0E0E0F0E0B0
:102340002E0F3F1FE12FF0E02E173F071CF4121B4A
:10235000212F01C020E08E2D887159F4F601822FC3
:1023600030E2882319F031938150FBCFC20ED11C8B
:1023700020E0992329F0D6019C93F60131966F0154
:1023800051110BC0F601822F90E3882319F091932D
:102390008150FBCFC20ED11C20E00F2D060F9A8179
:1023A000342F307144FF03C0913309F401501016EB
:1023B00024F4093018F008E001C001E0AB0177FF18
:1023C00002C040E050E0FB01E41BF50BA1E0B0E0EF
:1023D000AC0FBD1FEA0FFB1F8EE2A82E4B01801A27
:1023E00091080B2D10E01195019511094F3FBFEF9A
:1023F0005B0721F4D601AC9211966D016417750745
:102400002CF08416950614F4818101C080E34150BC
:1024100051093196D60111967D014017510724F0DC
:10242000D6018C936701E2CF6417750739F49633B0
:1024300020F4953319F4311101C081E3F601808352
:10244000F701822F90E2882319F091938150FBCFFE
:10245000F701E20FF11D108280E090E02996ECE098
:102460000C94D415A0E0B0E0E8E3F2E10C94B815C8
:10247000EC016B016115710519F0FB0191838083FB
:102480007E01FFEFEF1AFF0A0881802F90E00E9483
:10249000A00F892B11F0E701F3CF0D3239F47E0143
:1024A00082E0E80EF11C098111E008C00B3229F42A
:1024B0007E0192E0E90EF11C098110E0E70121970D
:1024C00043E050E060E770E0CE010E945B14892B8E
:1024D000C1F4239645E050E06BE670E0CE010E9427
:1024E0005B14892B09F42596C114D10419F0F60167
:1024F000D183C0831111F6C060E070E080E89FE7EF
:10250000FAC043E050E068E670E0CE010E945B1440
:10251000892B59F4C114D10409F4E9C0F2E0EF0E9B
:10252000F11CF601F182E082E2C020E030E0A90176
:10253000C0E0D0E0F70180EDA82EA00E89E08A155A
:1025400030F1912F9260B92E812F887012FF04C054
:10255000811124C0219622C081112197A5E0B0E00D
:102560000E94A715DC01CB01880F991FAA1FBB1F72
:102570009C01AD012A0D311D411D511D283989E9EC
:102580003807480789E1580748F0166006C09EEFF3
:10259000A9120AC013FD40C01860B12E8FEFE81ACF
:1025A000F80A00811B2DC6CF802F8F7D8534A1F5C1
:1025B00080818D3211F4106106C08B3221F031968A
:1025C00061E070E004C08181329662E070E0805387
:1025D0008A3018F0E61BF70B1FC060E070E060382F
:1025E0009CE079075CF4DB01AA0FBB1FAA0FBB1F9D
:1025F0006A0F7B1F660F771F680F711D3196DF0111
:1026000011978C9180538A3050F314FF03C0719559
:1026100061957109C60FD71F11FF08C0C114D104FD
:1026200029F0CF010197F60191838083CA01B90196
:102630000E948814212F2370233019F04B015C0174
:1026400006C04B015C01B7FAB094B7F8B09420E033
:1026500030E0A901C501B4010E948314882309F464
:102660003EC0D7FF06C0D195C195D10907E810E05B
:1026700002C00FE910E06801F8E1CF1AD10890E23A
:10268000E92EF12CCE15DF0574F0F8012591359176
:1026900045915491C501B4010E94E9144B015C01BC
:1026A000CE19DF09EFCF04501109F594E7940C150A
:1026B0001D0541F78A2D880F8B2D881F8F3F49F00C
:1026C00020E030E0A901C501B4010E94831481110A
:1026D00006C082E290E09093590180935801C501B1
:1026E000B40109C060E070E080E89FEF04C060E0E2
:1026F00070E080EC9FE7CDB7DEB7ECE00C94D4152A
:10270000283008F027E03327DA01990F311D87FDC3
:10271000916000966105710539F432602E5F3D933A
:1027200030E32A95E1F708959F3F30F08038710536
:10273000610509F03C5F3C5F3D93913008F0806893
:10274000911DDF93CF931F930F93FF92EF92192F59
:10275000987F9695E92F96959695E90FFF27E35078
:10276000FF4F99273327EE24FF24A701E7010590A7
:102770000894079428F4360FE71EF81E491F511DD0
:10278000660F771F881F991F0694A1F7059007947D
:1027900028F4E70EF81E491F561FC11D770F881F2A
:1027A000991F661F0694A1F70590079428F4F80E68
:1027B000491F561FC71FD11D880F991F661F771FFE
:1027C0000694A1F70590079420F4490F561FC71FE0
:1027D000D81F990F661F771F881F0694A9F7849149
:1027E0001095177041F0D695C79557954795F79472
:1027F000E7941A95C1F7E3EAF0E068941590159113
:1028000035916591959105907FE27395E118F10AF4
:10281000430B560BC90BD009C0F7E10CF11E431F47
:10282000561FC91FD01D7EF4703311F48A95E6CF70
:10283000E894015030F0080F0AF40027021708F45A
:10284000202F2395022F7A3328F079E37D932A9560
:10285000E9F710C07D932A9589F6069497956795B8
:10286000379517951794E118F10A430B560BC90BCE
:10287000D00998F023957E9173957A3308F070E330
:102880007C932013B8F77E9170617D9330F083952F
:1028900071E37D9370E32A95E1F71124EF90FF90A7
:1028A0000F911F91CF91DF91992787FD9095089502
:1028B000992788270895FB01DC014150504088F09A
:1028C0008D9181341CF08B350CF4805E6591613400
:1028D0001CF06B350CF4605E861B611171F3990B73
:1028E0000895881BFCCFDC01FC01672F71917723D1
:1028F000E1F7329704C07C916D9370836291AE17BB
:10290000BF07C8F308950E94C51408F481E0089534
:10291000E89409C097FB3EF4909580957095619579
:102920007F4F8F4F9F4F9923A9F0F92F96E9BB272F
:102930009395F695879577956795B795F111F8CFAB
:10294000FAF4BB0F11F460FF1BC06F5F7F4F8F4F16
:102950009F4F16C0882311F096E911C0772321F00C
:102960009EE8872F762F05C0662371F096E8862FA4
:1029700070E060E02AF09A95660F771F881FDAF7FB
:10298000880F9695879597F90895990F0008550F28
:10299000AA0BE0E8FEEF16161706E807F907C0F0E5
:1029A00012161306E407F50798F0621B730B840BED
:1029B000950B39F40A2661F0232B242B252B21F4C7
:1029C00008950A2609F4A140A6958FEF811D811D67
:1029D00008950E94FC140C946D150E945F1538F048
:1029E0000E94661520F0952311F00C9456150C9456
:1029F0005C1511240C94A1150E947E1570F3959F0F
:102A0000C1F3950F50E0551F629FF001729FBB27E5
:102A1000F00DB11D639FAA27F00DB11DAA1F649F81
:102A20006627B00DA11D661F829F2227B00DA11D34
:102A3000621F739FB00DA11D621F839FA00D611DBA
:102A4000221F749F3327A00D611D231F849F600DDB
:102A5000211D822F762F6A2F11249F5750409AF004
:102A6000F1F088234AF0EE0FFF1FBB1F661F771F90
:102A7000881F91505040A9F79E3F510580F00C945B
:102A800056150C94A1155F3FE4F3983ED4F3869558
:102A900077956795B795F795E7959F5FC1F7FE2BFB
:102AA000880F911D9695879597F9089597F99F67D7
:102AB00080E870E060E008959FEF80EC08950024C6
:102AC0000A941616170618060906089500240A9493
:102AD00012161306140605060895092E0394000C19
:102AE00011F4882352F0BB0F40F4BF2B11F460FFA8
:102AF00004C06F5F7F4F8F4F9F4F089557FD9058D1
:102B0000440F551F59F05F3F71F04795880F97FBB1
:102B1000991F61F09F3F79F087950895121613066B
:102B20001406551FF2CF4695F1DF08C0161617069A
:102B30001806991FF1CF86957105610508940895CF
:102B4000E894BB2766277727CB0197F908950E9461
:102B5000E915A59F900DB49F900DA49F800D911D28
:102B6000112408952F923F924F925F926F927F921D
:102B70008F929F92AF92BF92CF92DF92EF92FF928D
:102B80000F931F93CF93DF93CDB7DEB7CA1BDB0B39
:102B90000FB6F894DEBF0FBECDBF09942A883988DE
:102BA00048885F846E847D848C849B84AA84B984E5
:102BB000C884DF80EE80FD800C811B81AA81B981F1
:102BC000CE0FD11D0FB6F894DEBF0FBECDBFED0105
:102BD0000895A29FB001B39FC001A39F700D811DF6
:102BE0001124911DB29F700D811D1124911D089516
:042BF000F894FFCF87
:082BF40000005A01200000005E
:00000001FF
